{
  "contractName": "AdvancedStorage",
  "abi": [
    {
      "constant": true,
      "inputs": [
        {
          "internalType": "uint256",
          "name": "",
          "type": "uint256"
        }
      ],
      "name": "ids",
      "outputs": [
        {
          "internalType": "uint256",
          "name": "",
          "type": "uint256"
        }
      ],
      "payable": false,
      "stateMutability": "view",
      "type": "function"
    },
    {
      "constant": false,
      "inputs": [
        {
          "internalType": "uint256",
          "name": "id",
          "type": "uint256"
        }
      ],
      "name": "add",
      "outputs": [],
      "payable": false,
      "stateMutability": "nonpayable",
      "type": "function"
    },
    {
      "constant": true,
      "inputs": [
        {
          "internalType": "uint256",
          "name": "position",
          "type": "uint256"
        }
      ],
      "name": "get",
      "outputs": [
        {
          "internalType": "uint256",
          "name": "",
          "type": "uint256"
        }
      ],
      "payable": false,
      "stateMutability": "view",
      "type": "function"
    },
    {
      "constant": true,
      "inputs": [],
      "name": "getAll",
      "outputs": [
        {
          "internalType": "uint256[]",
          "name": "",
          "type": "uint256[]"
        }
      ],
      "payable": false,
      "stateMutability": "view",
      "type": "function"
    }
  ],
  "bytecode": "0x608060405234801561001057600080fd5b5061025f806100206000396000f3fe608060405234801561001057600080fd5b506004361061004c5760003560e01c80631003e2d21461005157806353ed51431461007f5780639507d39a146100de578063fac333ac14610120575b600080fd5b61007d6004803603602081101561006757600080fd5b8101908080359060200190929190505050610162565b005b610087610191565b6040518080602001828103825283818151815260200191508051906020019060200280838360005b838110156100ca5780820151818401526020810190506100af565b505050509050019250505060405180910390f35b61010a600480360360208110156100f457600080fd5b81019080803590602001909291905050506101e9565b6040518082815260200191505060405180910390f35b61014c6004803603602081101561013657600080fd5b8101908080359060200190929190505050610209565b6040518082815260200191505060405180910390f35b600081908060018154018082558091505090600182039060005260206000200160009091929091909150555050565b606060008054806020026020016040519081016040528092919081815260200182805480156101df57602002820191906000526020600020905b8154815260200190600101908083116101cb575b5050505050905090565b60008082815481106101f757fe5b90600052602060002001549050919050565b6000818154811061021657fe5b90600052602060002001600091509050548156fea265627a7a7231582036abc9afda5cb49981bf9c538200fc421cffc54da81440c50289ec561adf7e6c64736f6c63430005100032",
  "source": "pragma solidity ^0.5.0;\r\n\r\ncontract AdvancedStorage{\r\n    uint[] public ids;\r\n    \r\n    function add(uint id) public {\r\n        ids.push(id);\r\n    }\r\n\r\n    function get(uint  position) view public returns(uint){\r\n        return  ids[position];\r\n    }\r\n\r\n    function getAll() view public returns(uint[] memory){\r\n        return ids;\r\n    }\r\n\r\n}",
  "sourcePath": "C:/Users/vaibh/Documents/GitHub/advancedstorage/contracts/AdvancedStorage.sol",
  "compiler": {
    "name": "solc",
    "version": "0.5.16+commit.9c3226ce.Emscripten.clang"
  },
  "schemaVersion": "3.4.1",
  "updatedAt": "2021-05-31T07:17:43.477Z",
  "devdoc": {
    "methods": {}
  },
  "userdoc": {
    "methods": {}
  }
}